:100000000C9464000C948C000C948C000C948C0068
:100010000C948C000C948C000C948C000C948C0030
:100020000C948C000C948C000C948C000C948C0020
:100030000C948C000C948C000C948C000C948C0010
:100040000C94C8050C948C000C94E1060C948C0064
:100050000C948C000C948C000C948C000C948C00F0
:100060000C94DC020C948C0000000000240027009B
:100070002A0000000000250028002B0000000000DE
:1000800023002600290004040404040404040202DA
:100090000202020203030303030301020408102007
:1000A0004080010204081020010204081020000012
:1000B0000007000201000003040600000000000029
:1000C0000000D60192052A0811241FBECFEFD8E008
:1000D000DEBFCDBF11E0A0E0B1E0EAE6F9E102C089
:1000E00005900D92A032B107D9F711E0A0E2B1E07E
:1000F00001C01D92A23EB107E1F710E0C8ECD0E0CC
:1001000004C02297FE010E94AF0CC23CD107C9F780
:100110000E94C1050C94B30C0C9400000F931F9324
:10012000CF93DF93689F8001699F100D789F100D1A
:100130001124C8010E94AA00EC01009729F060E098
:1001400070E0A8010E94AC01CE01DF91CF911F9118
:100150000F910895CF93DF93BC018230910510F485
:1001600062E070E0A091E001B091E101ED01E0E01A
:10017000F0E040E050E021C0888199818617970720
:1001800069F48A819B81309719F09383828304C03C
:100190009093E1018093E001FE0134C06817790774
:1001A00038F44115510519F08417950708F4AC018E
:1001B000FE018A819B819C01E9012097E9F64115A6
:1001C0005105A9F1CA01861B970B049708F4BA01DF
:1001D000E0E0F0E02AC08D919C911197841795077B
:1001E000F9F46417750781F412968D919C91139719
:1001F000309719F09383828304C09093E101809338
:10020000E001FD0132964CC0CA01861B970BFD012F
:10021000E80FF91F6193719302978D939C9340C0EF
:10022000FD01828193819C01D9011097A1F68091F3
:10023000DE019091DF01892B41F4809111019091B1
:1002400012019093DF018093DE01409113015091E0
:1002500014014115510541F44DB75EB780910F016E
:1002600090911001481B590B2091DE013091DF0164
:10027000CA01821B930B8617970780F0AB014E5F74
:100280005F4F8417950750F0420F531F5093DF01C3
:100290004093DE01F9016193719302C0E0E0F0E068
:1002A000CF01DF91CF910895CF93DF93009709F4A9
:1002B00050C0EC0122971B821A82A091E001B091FC
:1002C000E101109709F140E050E0AC17BD0708F1DB
:1002D000BB83AA83FE0121913191E20FF31FAE1778
:1002E000BF0779F48D919C911197280F391F2E5FCC
:1002F0003F4F3983288312968D919C9113979B834E
:100300008A834115510571F4D093E101C093E00156
:1003100020C012968D919C911397AD01009711F01A
:10032000DC01D3CFFA01D383C28321913191E20F53
:10033000F31FCE17DF0769F488819981280F391FD1
:100340002E5F3F4FFA01318320838A819B81938303
:100350008283DF91CF910895DC0101C06D934150FC
:100360005040E0F7089581E08093290160932401D3
:1003700010922701109228010895809123019091F5
:100380002201891B089590912201809123019817E1
:1003900010F080E00895E0912001F0912101E90F33
:1003A000F11D80819F5F9093220108950895DF934E
:1003B000CF930F92CDB7DEB769838091290188234F
:1003C000A9F0809128018032B0F480912701E0915A
:1003D0002501F0912601E80FF11D6083809127012E
:1003E0008F5F809327018093280105C0CE0101967D
:1003F00061E00E94BF020F90CF91DF91089560915C
:10040000250170912601809124014091280121E06D
:100410000E947A021092270110922801109229015D
:100420000895862F6091200170912101413208F0DA
:1004300040E20E944202109222018093230108951B
:100440000E941102089580E290E061E070E00E9455
:100450008E0080932001909321011092220110922E
:10046000230180E290E061E070E00E948E008093C2
:1004700025019093260110922701109228010E94D5
:100480005E040895982F413210F040E031C0809111
:100490002B018823E1F781E080932B018FEF80937C
:1004A0003C01109233014150409334014F5F990F4A
:1004B000916090932C0185EE8093BC0080912B017C
:1004C0008130E1F380913301841710F440913301BE
:1004D000A0913101B091320120E030E007C0FB0172
:1004E000E20FF31F8D9180832F5F3F4F2417B8F3E6
:1004F000842F08951F93582F122F413210F081E05E
:100500003CC080912B018823E1F782E080932B018E
:100510008FEF80933C011092330140933401A091FE
:100520003101B0913201FB0102C081918D938E2F78
:10053000861B8417D0F3852F90E0880F991F809336
:100540002C0185EE8093BC00112321F080912B01BA
:100550008230E1F380913C018F3F11F480E00DC0C7
:1005600080913C01803211F482E007C080913C010F
:10057000803311F084E001C083E01F910895482F7B
:10058000613210F081E0089580912B01843011F0E8
:1005900082E0089560933801A0913501B091360151
:1005A000842F9C01F90102C081918D938E2F841BB1
:1005B0008617D0F380E008951F920F920FB60F9226
:1005C00011242F933F934F935F936F937F938F9358
:1005D0009F93AF93BF93EF93FF938091B90090E007
:1005E000887F90708036910509F4E2C081369105CC
:1005F000CCF58832910509F47BC089329105B4F4B9
:100600008031910509F46FC0813191053CF4009768
:1006100009F438C1089709F040C165C088319105D7
:1006200009F466C0809709F038C17FC08034910515
:1006300009F4A3C08134910544F48033910509F491
:100640007FC0C89709F029C186C08035910509F49B
:1006500086C08835910509F495C08834910509F064
:100660001CC19EC08839910509F404C189399105DE
:10067000ECF48837910509F49BC0893791054CF457
:100680008836910509F494C08037910509F005C1B9
:100690008FC08838910509F4EDC08039910509F4BF
:1006A0008DC08038910509F0F8C088C0803B910565
:1006B00009F4B2C0813B91054CF4803A910509F4EC
:1006C00091C0883A910509F0E8C0A6C0803C910528
:1006D00009F4D4C0883C910509F4D0C0883B910549
:1006E00009F0DBC0B1C080912C018093BB00C0C079
:1006F0009091330180913401981778F490913301EF
:10070000E0913101F0913201E90FF11D8081809378
:10071000BB009F5F90933301ABC085ED8093BC001D
:100720008091BC0084FDFCCFB6C080E280933C0188
:1007300085ED8093BC008091BC0084FDFCCFABC0F4
:1007400080E380933C0185ED8093BC008091BC00E8
:1007500084FDFCCFA0C088E380933C018FC08091D2
:1007600033019091BB00E0913101F0913201E80F2B
:10077000F11D90838F5F80933301909133018091BD
:10078000340174C0809133019091BB00E09131013C
:10079000F0913201E80FF11D90838F5F8093330158
:1007A00085ED8093BC008091BC0084FDFCCF73C0BC
:1007B00083E080932B0110923B015AC080913B0152
:1007C000803208F057C080913B019091BB00E091CE
:1007D0003901F0913A01E80FF11D90838F5F80930A
:1007E0003B0146C080913B01803248F480913B013F
:1007F000E0913901F0913A01E80FF11D108260910A
:100800003B01E0912F01F0913001809139019091ED
:100810003A0170E0099532C084E080932B01109278
:10082000370110923801E0912D01F0912E010995C8
:1008300080913801882341F481E080933801E09170
:100840003501F0913601108290913701E091350128
:10085000F0913601E90FF11D80818093BB009F5F0D
:10086000909337019091370180913801981710F4D7
:1008700085EC01C085E88093BC000FC085EC8093B7
:10088000BC0009C010923C0185ED8093BC008091B2
:10089000BC0084FDFCCF10922B01FF91EF91BF9122
:1008A000AF919F918F917F916F915F914F913F9108
:1008B0002F910F900FBE0F901F90189510922B0143
:1008C000449A459AE9EBF0E080818E7F80838081B5
:1008D0008D7F808388E48093B80085E48093BC009A
:1008E00080E290E061E070E00E948E008093310130
:1008F0009093320180E290E061E070E00E948E000F
:10090000809335019093360180E290E061E070E0E1
:100910000E948E008093390190933A010895FF92CE
:100920000F931F93F62E0AE211E0C8016AE270E00D
:100930000E94B301C8016F2D0E94D701C8010E9417
:10094000FF0168E070E080E090E00E9410061F91D7
:100950000F91FF9008958AE291E06AE270E041E031
:1009600050E00E9420028AE291E00E94BD018823AB
:10097000D1F38AE291E00E94C30108952F923F9241
:100980004F925F926F927F928F929F92AF92BF929F
:10099000CF92DF92EF92FF920F931F938C0160E052
:1009A0000E948F04C8010E94AB04C8010E94AB04DE
:1009B000682EC80160E10E948F04C8010E94AB0448
:1009C000C8010E94AB04A82EA2949FE0A9226A2D20
:1009D000617070E080E090E00E94170B20E030E052
:1009E00040E05FE30E94C70B7B018C01A8019701E7
:1009F0000E94C70BA80197010E94C70BA80197018D
:100A00000E94C70B20E030E040E050E00E94140A52
:100A10001B012C01A6946A2D617070E080E090E0CB
:100A20000E94170B20E030E040E05FE30E94C70B1C
:100A30007B018C01A80197010E94C70BA8019701B7
:100A40000E94C70B9B01AC01C201B1010E94140AB4
:100A50007B018C01A6946A2D617070E080E090E0CB
:100A60000E94170B20E030E040E05FE30E94C70BDC
:100A70009B01AC010E94C70B9B01AC01C801B701EF
:100A80000E94140A7B018C01BB24B694A794CC2449
:100A9000B7FCC094DC2CC601B5010E94170B20E006
:100AA00030E040E05FE30E94C70B9B01AC01C8014E
:100AB000B7010E94140A7B018C017724882477FCFB
:100AC0008094982CC401B3010E94170B9B01AC01C8
:100AD000C801B7010E94140A1F910F91FF90EF9077
:100AE000DF90CF90BF90AF909F908F907F906F904E
:100AF0005F904F903F902F90089580E161E00E94B9
:100B0000740680E160E00E94940681E161E00E9449
:100B1000740681E161E00E9494068AE291E00E94FD
:100B2000230208958DE391E060E00E947D05089521
:100B30000F931F930BEC11E0C80160E071E00E947D
:100B40009B088DE391E00E94BE04AB01BC01C8018B
:100B50000E940F0AC80167E071E00E94BA0864E6CB
:100B600070E080E090E00E9410061F910F910895C0
:100B70008BEC91E040E855E260E070E00E941E07D7
:100B800008950E943A060E94B8050E949805FDCF7C
:100B90001F920F920FB60F9211242F933F938F93B2
:100BA0009F93AF93BF938091420190914301A09195
:100BB0004401B0914501309146010196A11DB11D3E
:100BC000232F2D5F2D3720F02D570196A11DB11D2C
:100BD000209346018093420190934301A0934401E6
:100BE000B093450180913E0190913F01A091400159
:100BF000B09141010196A11DB11D80933E019093DA
:100C00003F01A0934001B0934101BF91AF919F91EB
:100C10008F913F912F910F900FBE0F901F901895BD
:100C2000EF92FF920F931F937B018C018FB7F89483
:100C300040914201509143016091440170914501FE
:100C40008FBF2FB7F8948091420190914301A091FA
:100C50004401B09145012FBF841B950BA60BB70B28
:100C6000E816F9060A071B0760F71F910F91FF901E
:100C7000EF900895789484B5826084BD84B58160D6
:100C800084BD85B5826085BD85B5816085BDEEE694
:100C9000F0E0808181608083E1E8F0E08081826023
:100CA0008083808181608083E0E8F0E080818160E2
:100CB0008083E1EBF0E0808184608083E0EBF0E012
:100CC000808181608083EAE7F0E0808184608083B6
:100CD0008081826080838081816080838081806860
:100CE00080831092C1000895282F30E0C9018656F4
:100CF0009F4FFC0194912A573F4FF901849188231B
:100D000091F0E82FF0E0EE0FFF1FE859FF4FA5919B
:100D1000B491662329F48C91909589238C9308953E
:100D20008C91892B8C930895482F50E0CA018255ED
:100D30009F4FFC012491CA0186569F4FFC0194915C
:100D40004A575F4FFA0134913323D1F1222331F115
:100D5000233021F4809180008F7705C0243031F456
:100D6000809180008F7D8093800018C0213019F41D
:100D700084B58F7704C0223021F484B58F7D84BD83
:100D80000DC0263021F48091B0008F7705C0273048
:100D900029F48091B0008F7D8093B000E32FF0E0C4
:100DA000EE0FFF1FEE58FF4FA591B491662329F473
:100DB0008C91909589238C9308958C91892B8C9399
:100DC00008951F920F920FB60F9211242F933F9305
:100DD0004F935F936F937F938F939F93AF93BF9343
:100DE000EF93FF934091C600E091C701F091C801D5
:100DF000CF01019660E870E00E94490C9C0180914F
:100E0000C9019091CA012817390739F0E95BFE4FF3
:100E100040833093C8012093C701FF91EF91BF91A8
:100E2000AF919F918F917F916F915F914F913F9182
:100E30002F910F900FBE0F901F9018955F926F9299
:100E40007F928F929F92AF92BF92CF92DF92EF925A
:100E5000FF920F931F93CF93DF93EC013A014B0165
:100E6000413482E458078FE0680780E078070CF08F
:100E70007FC060E874E88EE190E0A40193010E94D5
:100E80007E0C2150304040405040CA01B90122E060
:100E900030E040E050E00E947E0C59016A01A6015A
:100EA0009501209530954095509594E0220F331F81
:100EB000441F551F9A95D1F760E074E284EF90E0EB
:100EC0000E947E0CCA01B9012FEF30E040E050E0F3
:100ED0000E942A0CA40193010E947E0CC90181503A
:100EE0009F4F181619061CF4522E5A9403C055240D
:100EF0005394521A60E079E08DE390E0A4019301ED
:100F00000E947E0C2150304040405040CA01B9013F
:100F100022E030E040E050E00E947E0C20953095C9
:100F20004095509583E0220F331F441F551F8A952B
:100F3000D1F760E074E284EF90E00E947E0CCA0179
:100F4000B9012FEF30E040E050E00E942A0CA401EC
:100F500093010E947E0CC90181509F4F18161906FB
:100F60001CF4822F815002C081E0821B851500F5A0
:100F7000E885F98581E090E00A8802C0880F991F12
:100F80000A94E2F7808360E079E08DE390E0A401C9
:100F900093010E947E0C2150304040405040CA01D5
:100FA000B90122E030E040E050E00E947E0C04C035
:100FB000E885F98510829501EC81FD813083EE8111
:100FC000FF812083EA85FB85208141E050E0CA0152
:100FD0000E8402C0880F991F0A94E2F7282B208301
:100FE000EA85FB852081CA010F8402C0880F991F02
:100FF0000A94E2F7282B2083EA85FB858081088804
:1010000002C0440F551F0A94E2F7842B8083DF91BE
:10101000CF911F910F91FF90EF90DF90CF90BF90F5
:10102000AF909F908F907F906F905F900895FC019C
:10103000A085B18521898C9190E0022E02C0959502
:1010400087950A94E2F780FFF6CF0484F585E02DBA
:101050006083089589E191E09093CC018093CB0166
:1010600087E491E09093CE018093CD0185EC90E0F0
:101070009093D0018093CF0184EC90E09093D201C3
:101080008093D10180EC90E09093D4018093D301C0
:1010900081EC90E09093D6018093D50186EC90E0AE
:1010A0009093D8018093D70184E08093D90183E0A5
:1010B0008093DA0187E08093DB0185E08093DC0197
:1010C00081E08093DD0108950F931F93CF93DF9309
:1010D0008C01EB0109C02196D801ED91FC910190A2
:1010E000F081E02DC801099568816623A1F7DF91A1
:1010F000CF911F910F910895EF92FF920F931F933D
:10110000CF93DF938C017B01EA010CC0D7016D9175
:101110007D01D801ED91FC910190F081E02DC80195
:1011200009952197209791F7DF91CF911F910F910A
:10113000FF90EF900895DC01ED91FC910280F38126
:10114000E02D099508950F931F938C01DC01ED911B
:10115000FC910190F081E02D6DE00995D801ED91B1
:10116000FC910190F081E02DC8016AE009951F9182
:101170000F9108950F931F938C010E949B08C80143
:101180000E94A3081F910F9108952F923F924F92B2
:101190005F926F927F928F929F92AF92BF92CF9207
:1011A000DF92EF92FF920F931F93DF93CF93CDB710
:1011B000DEB7A0970FB6F894DEBF0FBECDBF1C01FF
:1011C0006A017B01411551056105710549F4DC0196
:1011D000ED91FC910190F081E02D60E3099554C000
:1011E000882499245401422E55246624772401E052
:1011F00010E00C0F1D1F080D191DC701B601A3013A
:1012000092010E945C0CF80160830894811C911C7F
:10121000A11CB11CC701B601A30192010E945C0C84
:10122000C901DA016C017D01C114D104E104F104AA
:10123000F1F681E0E82EF12CEC0EFD1EE80CF91C15
:101240003E010894611C711CD501C4010197A109DC
:10125000B1096C01C818D90814C0F601EE0DFF1DC4
:1012600060816A3010F4605D01C0695CD101ED916C
:10127000FC910190F081E02DC10109950894E108ED
:10128000F1086E147F0449F7A0960FB6F894DEBFFC
:101290000FBECDBFCF91DF911F910F91FF90EF90C7
:1012A000DF90CF90BF90AF909F908F907F906F9086
:1012B0005F904F903F902F9008952AE00E94C508BC
:1012C0000895EF92FF920F931F93CF93DF93EC015A
:1012D0007A018B0177FF0FC0E881F9810190F081DD
:1012E000E02D6DE2099510950095F094E094E11CD5
:1012F000F11C011D111DCE01B801A7012AE00E94B9
:10130000C508DF91CF911F910F91FF90EF90089545
:101310009F92AF92BF92CF92DF92EF92FF920F9384
:101320001F93CF93DF93EC017A018B01922ECB01B7
:10133000BA0120E030E040E050E00E94780A8823C3
:1013400064F4E881F9810190F081E02DCE016DE235
:10135000099517FB109517F9109520E030E040E053
:101360005FE3AA240BC0CA01B90120E030E040E2EB
:1013700051E40E947C0A9B01AC01A394A91498F348
:10138000C801B7010E94140A5B016C010E94E90ABE
:101390007B018C01CE01B801A7010E945D09992053
:1013A00029F0CE016DE071E00E949B08C801B701F1
:1013B0000E94150B9B01AC01C601B5010E94130AE6
:1013C00020C020E030E040E251E40E94C70B7B01E6
:1013D0008C010E94E40A5B016C01CC24B7FCC09430
:1013E000DC2CCE01B601A5010E946109C601B50140
:1013F0000E94170B9B01AC01C801B7010E94130AA0
:101400009A949920F1F6DF91CF911F910F91FF905F
:10141000EF90DF90CF90BF90AF909F90089522E023
:101420000E94880908955058BB27AA270ED075C17D
:1014300066D130F06BD120F031F49F3F11F41EF4EF
:101440005BC10EF4E095E7FB51C1E92F77D180F342
:10145000BA17620773078407950718F071F49EF5B1
:101460008FC10EF4E0950B2EBA2FA02D0B01B90100
:1014700090010C01CA01A0011124FF27591B99F00A
:10148000593F50F4503E68F11A16F040A22F232F16
:10149000342F4427585FF3CF469537952795A79566
:1014A000F0405395C9F77EF41F16BA0B620B730B0D
:1014B000840BBAF09150A1F0FF0FBB1F661F771F7E
:1014C000881FC2F70EC0BA0F621F731F841F48F433
:1014D000879577956795B795F7959E3F08F0B3CFB9
:1014E0009395880F08F09927EE0F979587950895A3
:1014F000D9D008F481E008950CD00FC107D140F095
:10150000FED030F021F45F3F19F0F0C0511139C125
:10151000F3C014D198F39923C9F35523B1F3951B64
:10152000550BBB27AA2762177307840738F09F5F04
:101530005F4F220F331F441FAA1FA9F333D00E2E73
:101540003AF0E0E830D091505040E695001CCAF7E0
:1015500029D0FE2F27D0660F771F881FBB1F2617A5
:1015600037074807AB07B0E809F0BB0B802DBF0178
:10157000FF2793585F4F2AF09E3F510568F0B6C091
:1015800000C15F3FECF3983EDCF386957795679555
:10159000B795F7959F5FC9F7880F911D9695879529
:1015A00097F90895E1E0660F771F881FBB1F621748
:1015B00073078407BA0720F0621B730B840BBA0B06
:1015C000EE1F88F7E095089504D06894B111D9C052
:1015D0000895BCD088F09F5790F0B92F9927B75144
:1015E000A0F0D1F0660F771F881F991F1AF0BA95E7
:1015F000C9F712C0B13081F0C3D0B1E00895C0C0C6
:10160000672F782F8827B85F39F0B93FCCF38695DC
:1016100077956795B395D9F73EF490958095709539
:1016200061957F4F8F4F9F4F0895E89409C097FBB6
:101630003EF490958095709561957F4F8F4F9F4FA9
:101640009923A9F0F92F96E9BB279395F6958795ED
:1016500077956795B795F111F8CFFAF4BB0F11F4B0
:1016600060FF1BC06F5F7F4F8F4F9F4F16C0882357
:1016700011F096E911C0772321F09EE8872F762F8D
:1016800005C0662371F096E8862F70E060E02AF0CE
:101690009A95660F771F881FDAF7880F96958795BA
:1016A00097F90895990F0008550FAA0BE0E8FEEF8F
:1016B00016161706E807F907C0F012161306E40716
:1016C000F50798F0621B730B840B950B39F40A260F
:1016D00061F0232B242B252B21F408950A2609F4ED
:1016E000A140A6958FEF811D811D089597F99F67F1
:1016F00080E870E060E008959FEF80EC089500249A
:101700000A941616170618060906089500240A9466
:1017100012161306140605060895092E0394000CEC
:1017200011F4882352F0BB0F40F4BF2B11F460FF7B
:1017300004C06F5F7F4F8F4F9F4F089557FD9058A4
:10174000440F551F59F05F3F71F04795880F97FB85
:10175000991F61F09F3F79F087950895121613063F
:101760001406551FF2CF4695F1DF08C0161617066E
:101770001806991FF1CF86957105610508940895A3
:10178000E894BB2766277727CB0197F908950BD0FC
:10179000C4CFB5DF28F0BADF18F0952309F0A6CF43
:1017A000ABCF1124EECFCADFA0F3959FD1F3950FF5
:1017B00050E0551F629FF001729FBB27F00DB11DD5
:1017C000639FAA27F00DB11DAA1F649F6627B00D65
:1017D000A11D661F829F2227B00DA11D621F739F4E
:1017E000B00DA11D621F839FA00D611D221F749F5C
:1017F0003327A00D611D231F849F600D211D822FA3
:10180000762F6A2F11249F5750408AF0E1F08823E9
:101810004AF0EE0FFF1FBB1F661F771F881F9150F6
:101820005040A9F79E3F510570F060CFAACF5F3FAF
:10183000ECF3983EDCF3869577956795B795F79529
:10184000E7959F5FC1F7FE2B880F911D96958795B1
:1018500097F90895629FD001739FF001829FE00D78
:10186000F11D649FE00DF11D929FF00D839FF00D1F
:10187000749FF00D659FF00D9927729FB00DE11DCB
:10188000F91F639FB00DE11DF91FBD01CF011124A8
:10189000089597FB092E07260AD077FD04D049D07A
:1018A00006D000201AF4709561957F4F0895F6F7E1
:1018B000909581959F4F0895A1E21A2EAA1BBB1BFC
:1018C000FD010DC0AA1FBB1FEE1FFF1FA217B3070C
:1018D000E407F50720F0A21BB30BE40BF50B661F22
:1018E000771F881F991F1A9469F7609570958095E6
:1018F00090959B01AC01BD01CF01089597FB092E86
:1019000005260ED057FD04D0D7DF0AD0001C38F4CE
:1019100050954095309521953F4F4F4F5F4F08951B
:10192000F6F790958095709561957F4F8F4F9F4FFB
:101930000895AA1BBB1B51E107C0AA1FBB1FA61716
:10194000B70710F0A61BB70B881F991F5A95A9F768
:1019500080959095BC01CD010895EE0FFF1F059075
:0A196000F491E02D0994F894FFCFF4
:10196A0054656D703A20002064656743002E00209C
:10197A0000E201000000000000170864087C08006B
:00000001FF
